S01100005075727365546573742E7372656364
S11300000C9441000C945E000C945E000C945E0011
S11300100C945E000C94BA060C945E000C945E0082
S11300200C945E000C945E000C945E000C945E00D4
S11300300C945E000C945E000C945E000C945E00C4
S11300400C945E000C945E000C94EF060C945E001D
S11300500C945E000C945E000C945E000C945E00A4
S11300600C945E000C945E008D0380039D036F036B
S1130070C302D002E102F202080320033C034D0351
S11300805E0311241FBECFEFD8E0DEBFCDBF11E069
S1130090A0E0B1E0EEE8F2E102C005900D92AC33CD
S11300A0B107D9F725E0ACE3B1E001C01D92A23756
S11300B0B207E1F70E9402050C9445090C94000074
S11300C00E947C070895E1ECF0E0808180688083E1
S11300D0789408951092B9008CE08093B80084E07D
S11300E08093BC00089584EA8093BC00ECEBF0E0BC
S11300F080818823ECF7089584E98093BC000895F7
S11301008093BB0084E88093BC00ECEBF0E080813A
S11301108823ECF70895FC01549A5C98158216A67E
S113012017A610AA11AA81E085A782A713A682E0C8
S113013084A7CB01880F991F860F971F828393830F
S113014024E22150F1F70895CF93DF93CDB7DEB7C2
S113015027970FB6F894DEBF0FBECDBFA7EEB3E06E
S11301601197F1F700C000001A829C838B83FB0176
S11301703196DB018C918D838BB1842B8E838BB173
S1130180409548234F838F8189838D81882314F47C
S11301908E8189835E816F814D8139812A818B8132
S11301A09C815BB9262F3BB900C046FD252F6BB956
S11301B000C05BB9362F2BB900C045FD352F6BB994
S11301C000C05BB9262F3BB900C044FD252F6BB995
S11301D000C05BB9362F2BB900C043FD352F6BB976
S11301E000C05BB9262F3BB900C042FD252F6BB977
S11301F000C05BB9362F2BB900C041FD352F6BB958
S113020000C05BB9262F3BB900C040FD252F6BB958
S113021001975BB9362F2BB9419147FD352F6BB947
S113022001F64D8339832A839C838B83E7EEF3E0C5
S11302303197F1F700C0000027960FB6F894DEBF9F
S11302400FBECDBFDF91CF910895FF920F931F93FF
S1130250CF93DF93EB01FF24F394F80E2D812F1538
S113026099F18B010A5F1F4F2150B9F08F3F51F470
S113027030E040E050E06FEF7FEF80E090E00E94DC
S113028019090DC08F2D90E0982F88270197622FB0
S113029070E00E94E3089B0102C020E030E08A8104
S11302A09B81892B81F0F80180E090E06081629F5E
S11302B0A001639F500D1124519301964A815B81E3
S11302C08417950798F3FD82DF91CF911F910F91C9
S11302D0FF9008950F931F93CF93DF93F801A081AC
S11302E0B1818A179B07E8F5A581AA2399F0B0E0AC
S11302F06A9FE0016B9FD00D11246D2F4A9FE0018E
S11303004B9FD00D11244D2F2A9FE0012B9FD00D20
S113031011242D2F35A552A5351309C0DC01AA0FD0
S1130320BB1F8A0F9B1F06968E0F9F1F0BC0880F43
S1130330991F880F991F06968E0F9F1FDC01A30F2C
S1130340B11D1C9232A5DC01A30FB11D6C9333A522
S1130350DC01A30FB11D4C9334A5FC01E30FF11D87
S11303602083DF91CF911F910F910895CF93C82FD0
S11303700E94730088E70E94800080E00E94800051
S11303808C2F0E9480000E947C00CF9108958FE6FC
S113039097E10197F1F700C000008FE295E701971C
S11303A0F1F700C000008EEA0E94B60185ED0E94BC
S11303B0B60180E80E94B60188EA0E94B6018FE384
S11303C00E94B60183ED0E94B60180E00E94B6014E
S11303D080E40E94B6018DE80E94B60184E10E9487
S11303E0B60180E20E94B60180E00E94B60181EA73
S11303F00E94B60188EC0E94B6018AED0E94B60103
S113040082E10E94B60181E80E94B6018FEC0E944D
S1130410B60189ED0E94B60181EF0E94B6018BED11
S11304200E94B60180E40E94B60184EA0E94B601EB
S113043086EA0E94B6018EE20E94B6019FEF29E689
S113044088E1915020408040E1F700C000008FEA2D
S11304500E94B6019FEF29E688E191502040804038
S1130460E1F700C0000008950F931F93CF93DF932B
S113047081E20E94B60180E00E94B6018FE70E94EB
S1130480B60182E20E94B60180E00E94B60187E0D4
S11304900E94B601CCE3D1E00CE315E00E947300A6
S11304A088E70E94800080E40E94800089910E9475
S11304B080000E947C00C017D10781F7DF91CF91A3
S11304C01F910F91089540E054E065E570E08CE3DE
S11304D091E00E943E0908952F923F924F925F92BD
S11304E06F927F928F929F92AF92BF92CF92DF9240
S11304F0EF92FF920F931F93CF93DF9300D000D01E
S113050000D0CDB7DEB76115710509F41CC1FC013B
S1130510860F971F20E030E00F2EF6E0EF2EF1E07B
S1130520FF2EF02D0CE011E00F2EF2E1AF2EF1E0E2
S1130530BF2EF02D0F2EF8E18F2EF1E09F2EF02D1F
S11305400F2EFEE16F2EF1E07F2EF02D66E371E0B9
S11305504CE351E00F2EFEEF3F2EF02DFA83E9839A
S11305602701A981BA812D90BA83A983C22CD12CE9
S1130570D6019D97AD30B10508F0DFC0AC5CBF4F2C
S1130580FD010C943809D901A45CBE4FF4E0FC933E
S113059011963C92119712961C922D5F3F4FCDC03D
S11305A0A6E3B1E0F901E45CFE4FE980FA80DD9056
S11305B0D192A417B507D9F7FA82E9822A5F3F4F8F
S11305C0BCC0A0E3B1E0F901E45CFE4FE980FA802D
S11305D0DD90D192A617B707D9F7FA82E9822A5F8C
S11305E03F4FABC0AAE2B1E0F901E45CFE4FE98001
S11305F0FA809C838B83DD90D19281E0A033B8078D
S1130600D1F7FA82E9828B819C812A5F3F4F95C0A2
S1130610A4E2B1E0BE83AD83F901E45CFE4FE9805E
S1130620FA809C838B83DD90D19281E0AA32B80753
S1130630D1F7FA82E9828B819C812A5F3F4F7DC08A
S1130640AEE1B1E0F901E45CFE4FE980FA80FA839F
S1130650E9839C838B83DD90E981FA81D192FA83CB
S1130660E983F1E0A432BF07B1F7FA82E9828B8112
S11306709C812A5F3F4F61C0A8E1B1E0F901E45CCD
S1130680FE4FE980FA80DD90D192A615B705D9F71F
S1130690FA82E9822A5F3F4F50C0A2E1B1E0F9013A
S11306A0E45CFE4FE980FA80DD90D192A815B9058B
S11306B0D9F7FA82E9822A5F3F4F3FC0ACE0B1E04C
S11306C0F901E45CFE4FE980FA80DD90D192AA152D
S11306D0BB05D9F7FA82E9822A5F3F4F2EC0A6E014
S11306E0B1E0F901E45CFE4FE980FA80DD90D1923B
S11306F0A017B107D9F7FA82E9822A5F3F4F1DC0DC
S1130700D901A45CBE4F1C92F0E41196FC9311979E
S113071012961C922D5F3F4F10C0A0E0B1E0F9018A
S1130720E45CFE4FE980FA80DD90D192A415B50512
S1130730D9F7FA82E9822A5F3F4FA981BA81A817C3
S1130740B90709F00ECF26960FB6F894DEBF0FBE98
S1130750CDBFDF91CF911F910F91FF90EF90DF906C
S1130760CF90BF90AF909F908F907F906F905F904D
S11307704F903F902F900895EDE3F5E02CE331E0A6
S11307804DEB54E01292E417F507E1F7ECEBF4E0DB
S1130790ACE3B5E042914E932E173F07D9F7ECE353
S11307A0F1E02CEB31E01192E217F307E1F70E943C
S11307B06C0208952F923F924F925F926F927F92B4
S11307C08F929F92AF92BF92CF92DF92EF92FF925D
S11307D01F93CF93DF934B015C011A01122F213039
S11307E009F4E7C0223009F4E7C0233009F4E7C074
S11307F0243009F4E7C020E030E0A9010E949E07FC
S1130800882304F5C1E0D0E01123A1F06E01E12CAE
S1130810F12CC701B6010E94CE07A50194010E94E4
S1130820580890580E94A207A70196010E94F70851
S11308302B013C01C501B40190580E94A2076B0131
S11308407C011DC01123A9F0C1E0D0E06E01E12CB0
S1130850F12CC701B6010E94CE07A50194010E94A4
S113086058080E94A207A70196010E94F7082B01CD
S11308703C01C501B4010E94A2076B017C01112354
S113088009F45CC0C301B2012AE030E040E050E06A
S11308900E94F708605DF101658F123018F4E101E0
S11308A06D9649C0C301B2012AE030E040E050E057
S11308B00E94F70829013A01CA01B9012AE030E08F
S11308C040E050E00E94F708605DF101648F13304E
S11308D018F4E1016C962FC0C301B2012AE030E0A4
S11308E040E050E00E94F70829013A01CA01B90129
S11308F02AE030E040E050E00E94F708605DF1013A
S1130900638F143018F4E1016B9615C0E1016A9607
S1130910C301B2012AE030E040E050E00E94F70851
S1130920CA01B9012AE030E040E050E00E94F70833
S1130930605DF101628F8EE28A9307C080E3F1016A
S1130940858FE1016C968EE2848FC114D104E10499
S1130950F104C1F00F2EFAE04F2E512C612C712CB2
S1130960F02DC701B601A30192010E94F708605D52
S11309706A93C22ED32EE42EF52EC114D104E104C1
S1130980F10479F720E030E0A901C501B4010E9427
S11309909E07882314F48DE28A9320E030E0A901B5
S11309A0C501B4010E949E07811119C080E38A9396
S11309B016C0CAE0D0E008C0C4E6D0E005C0C8EE66
S11309C0D3E002C0C0E1D7E220E030E0A901C501D4
S11309D0B4010E949E0788230CF038CF15CFCE01B6
S11309E0DF91CF911F91FF90EF90DF90CF90BF9058
S11309F0AF909F908F907F906F905F904F903F90BB
S1130A002F900895CF93DF93CDB7DEB7CA57D1099E
S1130A100FB6F894DEBF0FBECDBF8FE395E00E9402
S1130A202007289A94B181E0892784B90E946C0731
S1130A300E946A000E94C7010E9460000E94630035
S1130A400E9463020E94340282E3898361E070E0C1
S1130A50CE0101960E94BC030E943402FE0132962C
S1130A608EE1DF011D928A95E9F7CE0180960E94FE
S1130A701A07BFEFE9E6F8E1B150E040F040E1F7D2
S1130A8000C000000E9491076CE070E0CE018D5B15
S1130A909F4F0E948B00BE016D5B7F4F81E00E94DF
S1130AA02501E12CF12C8E010D5B1F4F20E040E06D
S1130AB060E0C7010E946A012FEFE21AF20A8CE09B
S1130AC0E816F10481F7B8016A5F7F4FE8964FADED
S1130AD0E89727968EAD9FAD27970E94A400E12C3E
S1130AE0F12C8E010D5B1F4F2FE740E060E8C7013A
S1130AF00E946A019FEFE91AF90AACE0EA16F104D0
S1130B0081F7B80181E00E942501B8016A5F7F4F37
S1130B10E8964FADE89727968EAD9FAD27970E9434
S1130B20A400B1E0EB96BFAFEB976894442447F878
S1130B30712C0F2EF1E6CF2EF5E0DF2EF02D5801AB
S1130B40E9960FAFE997EA96BFAEEA97C801069611
S1130B504C01312C212C502E6B2CD6018C918823E6
S1130B6009F458C08C91882309F454C08FE395E0AC
S1130B700E942607813069F5F60180818823E1F31C
S1130B808FE395E00E942607782E770CD6019C917E
S1130B909923E1F38FE395E00E942607780EF6018E
S1130BA080818823E1F38FE395E00E942607E32CFC
S1130BB0F22C052D162D2FE740E0672DC7010E946A
S1130BC06A01FFEFEF1AFF0A2CE0E216F10489F73D
S1130BD0472CD501D4964C91D497B40112968D919B
S1130BE09C9113970E94A400672D70E080E090E030
S1130BF00E94CE0720E0AE014E5F5F4F0E94DA03F1
S1130C0063E070E00E94BC030E943402F60180811C
S1130C108111ACCF80913D05813009F09ECF809148
S1130C203E05813009F052C0EB96FFADEB97F230F0
S1130C3038F0F550EB96FFAFEB97FF2331F009C086
S1130C4021E0EB962FAFEB9704C081E0EB968FAFDA
S1130C50EB97E9966FADE997EA967FADEA97EB9645
S1130C608FADEB970E942501E12CF12CE9960FAD95
S1130C70E997EA961FADEA972FE740E0642DC70194
S1130C800E946A019FEFE91AF90AACE0EA16F1043E
S1130C9069F7F50144A9B401828193810E94A400FB
S1130CA0EB96FFADEB976F2F70E080E090E00E9431
S1130CB0CE0720E0AE014E5F5F4F0E94DA0363E08F
S1130CC070E00E94BC030E94340251C0EB962FAD29
S1130CD0EB972B3F38F42B5FEB962FAFEB97222348
S1130CE031F009C08FEFEB968FAFEB9704C091E022
S1130CF0EB969FAFEB97E9966FADE997EA967FADD8
S1130D00EA97EB968FADEB970E942501E12CF12C2D
S1130D10E9960FADE997EA961FADEA972FE740E011
S1130D20642DC7010E946A01AFEFEA1AFA0ABCE017
S1130D30EB16F10469F7F50144A9B40182819381AA
S1130D400E94A400EB96FFADEB976F2F70E080E05C
S1130D5090E00E94CE0720E0AE014E5F5F4F0E94FC
S1130D60DA0363E070E00E94BC030E943402109234
S1130D703D05F3CE1F920F920FB60F9211242F93BD
S1130D803F934F935F936F937F938F939F93AF930F
S1130D90BF93EF93FF930E946207813029F40E946E
S1130DA0670780933E0507C00E94670791E08111A1
S1130DB090E090933E0581E080933D05FF91EF9193
S1130DC0BF91AF919F918F917F916F915F914F915F
S1130DD03F912F910F900FBE0F901F9018951F9267
S1130DE00F920FB60F9211242F933F934F935F935B
S1130DF06F937F938F939F93AF93BF93EF93FF93DF
S1130E006091C6008FE395E00E943D0781E08093E6
S1130E103C05FF91EF91BF91AF919F918F917F918D
S1130E206F915F914F913F912F910F900FBE0F9053
S1130E301F90189523E2FC0111922A95E9F7089571
S1130E4023E2FC0111922A95E9F70895FC0182A19D
S1130E50882381F081A1DF01A80FB11D8C9121A10C
S1130E6030E02F5F3F4F2F71307821A322A1215012
S1130E7022A308958FEF9FEF0895FC0182A1803291
S1130E8078F480A1DF01A80FB11D6C9380A190E0DC
S1130E9001968F71907880A382A18F5F82A30895B9
S1130EA080A1DF01A80FB11D6C9380A190E0019691
S1130EB08F71907880A381A190E001968F719078D2
S1130EC081A3089589B185FB882780F9089589B1A4
S1130ED086FB882780F908958AB18F718AB95F9A51
S1130EE0E8E6F0E0808184608083EDE6F0E08081D4
S1130EF0806280837894089590E080E80FB6F89437
S1130F0080936100909361000FBE88E18093C100DB
S1130F108EE08093C2001092C50083E38093C400E6
S1130F2008958091C000882344F4A6ECB0E0E0EC7E
S1130F30F0E08C9180818823E4F308956CD008F468
S1130F4081E0089594D088F09F5790F0B92F9927A5
S1130F50B751A0F0D1F0660F771F881F991F1AF0C0
S1130F60BA95C9F712C0B13081F09BD0B1E00895B1
S1130F7098C0672F782F8827B85F39F0B93FCCF332
S1130F80869577956795B395D9F73EF490958095B6
S1130F90709561957F4F8F4F9F4F0895E89409C0D6
S1130FA097FB3EF490958095709561957F4F8F4F98
S1130FB09F4F9923A9F0F92F96E9BB279395F695AE
S1130FC0879577956795B795F111F8CFFAF4BB0F2C
S1130FD011F460FF1BC06F5F7F4F8F4F9F4F16C090
S1130FE0882311F096E911C0772321F09EE8872F1A
S1130FF0762F05C0662371F096E8862F70E060E0D6
S11310002AF09A95660F771F881FDAF7880F96954E
S1131010879597F90895990F0008550FAA0BE0E8F2
S1131020FEEF16161706E807F907C0F012161306A6
S1131030E407F50798F0621B730B840B950B39F4E6
S11310400A2661F0232B242B252B21F408950A264C
S113105009F4A140A6958FEF811D811D089557FDC8
S11310609058440F551F59F05F3F71F04795880F12
S113107097FB991F61F09F3F79F0879508951216A9
S113108013061406551FF2CF4695F1DF08C0161655
S113109017061806991FF1CF869571056105089406
S11310A00895E894BB2766277727CB0197F908951D
S11310B00BD078C069D028F06ED018F0952309F0D1
S11310C05AC05FC01124EECFCADFA0F3959FD1F3BD
S11310D0950F50E0551F629FF001729FBB27F00DE2
S11310E0B11D639FAA27F00DB11DAA1F649F662737
S11310F0B00DA11D661F829F2227B00DA11D621F86
S1131100739FB00DA11D621F839FA00D611D221F3F
S1131110749F3327A00D611D231F849F600D211D23
S1131120822F762F6A2F11249F5750408AF0E1F0C6
S113113088234AF0EE0FFF1FBB1F661F771F881F0F
S113114091505040A9F79E3F510570F014C0AACFAA
S11311505F3FECF3983EDCF3869577956795B795FA
S1131160F795E7959F5FC1F7FE2B880F911D969524
S1131170879597F9089597F99F6780E870E060E094
S113118008959FEF80EC089500240A94161617061C
S113119018060906089500240A9412161306140664
S11311A005060895092E0394000C11F4882352F0C7
S11311B0BB0F40F4BF2B11F460FF04C06F5F7F4F7F
S11311C08F4F9F4F0895AA1BBB1B51E107C0AA1F55
S11311D0BB1FA617B70710F0A61BB70B881F991FD4
S11311E05A95A9F780959095BC01CD010895A1E287
S11311F01A2EAA1BBB1BFD010DC0AA1FBB1FEE1F8D
S1131200FF1FA217B307E407F50720F0A21BB30BD7
S1131210E40BF50B661F771F881F991F1A9469F753
S113122060957095809590959B01AC01BD01CF01AF
S11312300895052E97FB1EF400940E94300957FD73
S113124007D00E94F70807FC03D04EF40C94300931
S113125050954095309521953F4F4F4F5F4F0895DE
S113126090958095709561957F4F8F4F9F4F08950E
S1131270EE0FFF1F0590F491E02D0994DC0101C0ED
S11112806D9341505040E0F70895F894FFCF6D
S113128E0010101010007CA2928A7C000C929252D4
S113129E3C006C9292926C000202E21A0600789460
S11312AE929260009E9292926200302824FE200058
S10F12BE448292926C0084C2A2928C00C4
S9030000FC
