:100000000C9441000C945E000C945E000C945E0015
:100010000C945E000C9442040C945E000C945E0000
:100020000C945E000C945E000C945E000C945E00D8
:100030000C945E000C945E000C945E000C945E00C8
:100040000C945E000C945E000C9477040C945E009B
:100050000C945E000C945E000C945E000C945E00A8
:100060000C945E000C945E006D0260027D024F02F3
:10007000A301B001C101D201E80100021C022D025E
:100080003E0211241FBECFEFD8E0DEBFCDBF11E08E
:10009000A0E0B1E0EAE4FDE002C005900D92AC33CF
:1000A000B107D9F725E0ACE3B1E001C01D92A2375A
:1000B000B207E1F70E94E2030C94A3060C9400003F
:1000C0000E941A050895E1ECF0E080818068808349
:1000D000789408951092B9008CE08093B80084E081
:1000E0008093BC00089584EA8093BC00ECEBF0E0C0
:1000F00080818823ECF7089584E98093BC000895FB
:100100008093BB0084E88093BC00ECEBF0E080813E
:100110008823ECF7089584E88093BC00ECEBF0E0D2
:1001200080818823ECF78091BB000895CF93C82F7E
:100130000E94730088E70E94800080E00E94800097
:100140008C2F0E9480000E947C00CF9108958FE642
:1001500097E10197F1F700C000008FE295E7019762
:10016000F1F700C000008EEA0E94960085ED0E9423
:10017000960080E80E94960088EA0E9496008FE32D
:100180000E94960083ED0E94960080E00E949600F7
:1001900080E40E9496008DE80E94960084E10E940F
:1001A000960080E20E94960080E00E94960081EA1C
:1001B0000E94960088EC0E9496008AED0E949600AC
:1001C00082E10E94960081E80E9496008FEC0E94D6
:1001D000960089ED0E94960081EF0E9496008BEDBB
:1001E0000E94960080E40E94960084EA0E94960095
:1001F00086EA0E9496008EE20E9496009FEF29E612
:1002000088E1915020408040E1F700C000008FEA73
:100210000E9496009FEF29E688E19150204080409F
:10022000E1F700C0000008950F931F93CF93DF9371
:1002300081E20E94960080E00E9496008FE70E9473
:10024000960082E20E94960080E00E94960087E07D
:100250000E949600CCE3D1E00CE315E00E9473000D
:1002600088E70E94800080E40E94800089910E94BB
:1002700080000E947C00C017D10781F7DF91CF91E9
:100280001F910F91089540E054E065E570E08CE324
:1002900091E00E949C0608952F923F924F925F92A8
:1002A0006F927F928F929F92AF92BF92CF92DF9286
:1002B000EF92FF920F931F93CF93DF9300D000D064
:1002C00000D0CDB7DEB76115710509F41CC1FC0182
:1002D000860F971F20E030E00F2EF6E0EF2EF1E0C2
:1002E000FF2EF02D0CE011E00F2EF2E1AF2EF1E029
:1002F000BF2EF02D0F2EF8E18F2EF1E09F2EF02D66
:100300000F2EFEE16F2EF1E07F2EF02D66E371E0FF
:100310004CE351E00F2EFEEF3F2EF02DFA83E983E0
:100320002701A981BA812D90BA83A983C22CD12C2F
:10033000D6019D97AD30B10508F0DFC0AC5CBF4F72
:10034000FD010C949606D901A45CBE4FF4E0FC9329
:1003500011963C92119712961C922D5F3F4FCDC083
:10036000A6E3B1E0F901E45CFE4FE980FA80DD909C
:10037000D192A417B507D9F7FA82E9822A5F3F4FD5
:10038000BCC0A0E3B1E0F901E45CFE4FE980FA8073
:10039000DD90D192A617B707D9F7FA82E9822A5FD2
:1003A0003F4FABC0AAE2B1E0F901E45CFE4FE98047
:1003B000FA809C838B83DD90D19281E0A033B807D3
:1003C000D1F7FA82E9828B819C812A5F3F4F95C0E9
:1003D000A4E2B1E0BE83AD83F901E45CFE4FE980A5
:1003E000FA809C838B83DD90D19281E0AA32B8079A
:1003F000D1F7FA82E9828B819C812A5F3F4F7DC0D1
:10040000AEE1B1E0F901E45CFE4FE980FA80FA83E5
:10041000E9839C838B83DD90E981FA81D192FA8311
:10042000E983F1E0A432BF07B1F7FA82E9828B8158
:100430009C812A5F3F4F61C0A8E1B1E0F901E45C13
:10044000FE4FE980FA80DD90D192A615B705D9F765
:10045000FA82E9822A5F3F4F50C0A2E1B1E0F90180
:10046000E45CFE4FE980FA80DD90D192A815B905D1
:10047000D9F7FA82E9822A5F3F4F3FC0ACE0B1E092
:10048000F901E45CFE4FE980FA80DD90D192AA1573
:10049000BB05D9F7FA82E9822A5F3F4F2EC0A6E05A
:1004A000B1E0F901E45CFE4FE980FA80DD90D19281
:1004B000A017B107D9F7FA82E9822A5F3F4F1DC022
:1004C000D901A45CBE4F1C92F0E41196FC931197E5
:1004D00012961C922D5F3F4F10C0A0E0B1E0F901D1
:1004E000E45CFE4FE980FA80DD90D192A415B50559
:1004F000D9F7FA82E9822A5F3F4FA981BA81A8170A
:10050000B90709F00ECF26960FB6F894DEBF0FBEDE
:10051000CDBFDF91CF911F910F91FF90EF90DF90B2
:10052000CF90BF90AF909F908F907F906F905F9093
:100530004F903F902F900895EDE3F5E02CE331E0EC
:100540004DEB54E01292E417F507E1F7ECEBF4E021
:10055000ACE3B5E042914E932E173F07D9F7ECE399
:10056000F1E02CEB31E01192E217F307E1F70E9482
:100570004C0108952F923F924F925F926F927F921B
:100580008F929F92AF92BF92CF92DF92EF92FF92A3
:100590001F93CF93DF934B015C011A01122F21307F
:1005A00009F4E7C0223009F4E7C0233009F4E7C0BA
:1005B000243009F4E7C020E030E0A9010E942F05B3
:1005C000882304F5C1E0D0E01123A1F06E01E12CF5
:1005D000F12CC701B6010E945F05A50194010E949C
:1005E000E90590580E943305A70196010E94740600
:1005F0002B013C01C501B40190580E9433056B01E9
:100600007C011DC01123A9F0C1E0D0E06E01E12CF6
:10061000F12CC701B6010E945F05A50194010E945B
:10062000E9050E943305A70196010E9474062B017B
:100630003C01C501B4010E9433056B017C0111230B
:1006400009F45CC0C301B2012AE030E040E050E0B0
:100650000E947406605DF101658F123018F4E101AB
:100660006D9649C0C301B2012AE030E040E050E09D
:100670000E94740629013A01CA01B9012AE030E05A
:1006800040E050E00E947406605DF101648F133019
:1006900018F4E1016C962FC0C301B2012AE030E0EA
:1006A00040E050E00E94740629013A01CA01B901F4
:1006B0002AE030E040E050E00E947406605DF10105
:1006C000638F143018F4E1016B9615C0E1016A964E
:1006D000C301B2012AE030E040E050E00E9474061D
:1006E000CA01B9012AE030E040E050E00E947406FF
:1006F000605DF101628F8EE28A9307C080E3F101B1
:10070000858FE1016C968EE2848FC114D104E104DF
:10071000F104C1F00F2EFAE04F2E512C612C712CF8
:10072000F02DC701B601A30192010E947406605D1D
:100730006A93C22ED32EE42EF52EC114D104E10407
:10074000F10479F720E030E0A901C501B4010E946D
:100750002F05882314F48DE28A9320E030E0A9016C
:10076000C501B4010E942F05811119C080E38A934D
:1007700016C0CAE0D0E008C0C4E6D0E005C0C8EEAC
:10078000D3E002C0C0E1D7E220E030E0A901C5011A
:10079000B4010E942F0588230CF038CF15CFCE016D
:1007A000DF91CF911F91FF90EF90DF90CF90BF909E
:1007B000AF909F908F907F906F905F904F903F9001
:1007C0002F900895CF93DF93CDB7DEB7C254D109F0
:1007D0000FB6F894DEBF0FBECDBF8FE395E00E9449
:1007E000A804289A94B181E0892784B90E94DD0485
:1007F0000E946A000E94A7000E9460000E9463009D
:100800000E9443010E94140186E3898361E070E045
:10081000CE0101960E949C020E941401FE013296B4
:100820008EE1DF011D928A95E9F7CE0180960E9444
:10083000A204BFEF29E688E1B15020408040E1F7F3
:1008400000C000000E94ED040E940405682F70E0C3
:1008500080E090E00E945F0520E0AE014E5F5F4FB8
:100860000E94BA0268E070E00E949C020E9414019B
:100870009FEFA1E1BAE79150A040B040E1F700C07E
:100880000000E2CF1F920F920FB60F9211242F9308
:100890003F934F935F936F937F938F939F93AF9308
:1008A000BF93EF93FF930E94D304813029F40E94F9
:1008B000D80480933E0507C00E94D80491E08111BE
:1008C00090E090933E0581E080933D05FF91EF918C
:1008D000BF91AF919F918F917F916F915F914F9158
:1008E0003F912F910F900FBE0F901F9018951F9260
:1008F0000F920FB60F9211242F933F934F935F9354
:100900006F937F938F939F93AF93BF93EF93FF93D7
:100910006091C6008FE395E00E94AE0481E0809371
:100920003C05FF91EF91BF91AF919F918F917F9186
:100930006F915F914F913F912F910F900FBE0F904C
:100940001F90189523E2FC0111922A95E9F708956A
:1009500023E2FC0111922A95E9F70895FC0182A196
:10096000803278F480A1DF01A80FB11D6C9380A1C3
:1009700090E001968F71907880A382A18F5F82A30F
:10098000089580A1DF01A80FB11D6C9380A190E0B4
:1009900001968F71907880A381A190E001968F716C
:1009A000907881A3089589B185FB882780F90895FF
:1009B00089B186FB882780F908958AB18F718AB939
:1009C0005F9AE8E6F0E0808184608083EDE6F0E005
:1009D000808180628083789408950E94730080E90A
:1009E0000E94800081E00E94800080E00E948000E0
:1009F0000E947C002FE78AE196E0215080409040E1
:100A0000E1F700C000000895CF930E94730080E9D1
:100A10000E94800080E00E9480000E94730081E9B3
:100A20000E9480000E948B00C82F0E947C008C2FA7
:100A3000CF91089590E080E80FB6F894809361001C
:100A4000909361000FBE88E18093C1008EE0809397
:100A5000C2001092C50083E38093C40008956CD057
:100A600008F481E0089594D088F09F5790F0B92F52
:100A70009927B751A0F0D1F0660F771F881F991FF3
:100A80001AF0BA95C9F712C0B13081F09BD0B1E02D
:100A9000089598C0672F782F8827B85F39F0B93F3D
:100AA000CCF3869577956795B395D9F73EF49095F5
:100AB0008095709561957F4F8F4F9F4F0895E89473
:100AC00009C097FB3EF490958095709561957F4F96
:100AD0008F4F9F4F9923A9F0F92F96E9BB27939544
:100AE000F695879577956795B795F111F8CFFAF454
:100AF000BB0F11F460FF1BC06F5F7F4F8F4F9F4F85
:100B000016C0882311F096E911C0772321F09EE8E2
:100B1000872F762F05C0662371F096E8862F70E048
:100B200060E02AF09A95660F771F881FDAF7880F22
:100B30009695879597F90895990F0008550FAA0B78
:100B4000E0E8FEEF16161706E807F907C0F01216E0
:100B50001306E407F50798F0621B730B840B950BE3
:100B600039F40A2661F0232B242B252B21F4089538
:100B70000A2609F4A140A6958FEF811D811D0895D5
:100B800057FD9058440F551F59F05F3F71F047953E
:100B9000880F97FB991F61F09F3F79F08795089523
:100BA000121613061406551FF2CF4695F1DF08C042
:100BB000161617061806991FF1CF8695710561055F
:100BC00008940895E894BB2766277727CB0197F907
:100BD00008950BD078C069D028F06ED018F0952316
:100BE00009F05AC05FC01124EECFCADFA0F3959F71
:100BF000D1F3950F50E0551F629FF001729FBB2704
:100C0000F00DB11D639FAA27F00DB11DAA1F649FAF
:100C10006627B00DA11D661F829F2227B00DA11D62
:100C2000621F739FB00DA11D621F839FA00D611DE8
:100C3000221F749F3327A00D611D231F849F600D09
:100C4000211D822F762F6A2F11249F5750408AF042
:100C5000E1F088234AF0EE0FFF1FBB1F661F771FCE
:100C6000881F91505040A9F79E3F510570F014C065
:100C7000AACF5F3FECF3983EDCF3869577956795B6
:100C8000B795F795E7959F5FC1F7FE2B880F911DEC
:100C90009695879597F9089597F99F6780E870E092
:100CA00060E008959FEF80EC089500240A941616E2
:100CB000170618060906089500240A94121613064A
:100CC000140605060895092E0394000C11F48823D8
:100CD00052F0BB0F40F4BF2B11F460FF04C06F5FF4
:100CE0007F4F8F4F9F4F0895A1E21A2EAA1BBB1B67
:100CF000FD010DC0AA1FBB1FEE1FFF1FA217B307E8
:100D0000E407F50720F0A21BB30BE40BF50B661FFD
:100D1000771F881F991F1A9469F7609570958095C1
:100D200090959B01AC01BD01CF010895EE0FFF1F0F
:100D30000590F491E02D0994DC0101C06D934150C0
:0A0D40005040E0F70895F894FFCF4B
:100D4A000010101010007CA2928A7C000C92925221
:100D5A003C006C9292926C000202E21A06007894AD
:100D6A00929260009E9292926200302824FE2000A5
:0C0D7A00448292926C0084C2A2928C0011
:00000001FF
